:020000040020DA
:10400000F87F00201D41200009052100090521003D
:1040100009052100090521000905210009052100E4
:104020000905210009052100090521003F0521009E
:1040300009052100090521000905210009052100C4
:1040400009052100090521000905210009052100B4
:1040500009052100090521000905210009052100A4
:104060000905210009052100090521000905210094
:104070000905210009052100090521000905210084
:104080000905210009052100090521000905210074
:104090000905210009052100090521000905210064
:1040A0000905210009052100090521000905210054
:1040B0000905210009052100090521000905210044
:1040C0000905210009052100090521000905210034
:1040D0000905210009052100090521000905210024
:1040E0000905210009052100090521000905210014
:1040F000090521000905210010B5074C54F8043CBE
:10410000B3F1FF3F06D0043C984754F8043DB3F1A7
:0C411000FF3FF9D110BD00BF6412210078
:10411C0040400949094A086004319142FBDBFFF732
:10412C00E5FF00BF00F02EFA00F030FA01B40CF0FD
:10413C0057FF02F045FD000004000020AC0F0020EA
:10414C0043680A1D5BB1D0F80CC00133CCF80420D5
:10415C004FF0000CC1F808C04360C26070478B6020
:10416C0001238260C2604360F8E700BF10B444686A
:10417C00012C17D0836801F1040C9C4517D04BB16E
:10418C005A682AB1944503D013465268002AF9D1D3
:10419C008A685A60C268944508BFC360013C446099
:1041AC0010BC704700238360C3604360F8E7002CA9
:1041BC00F6D08B68013C83604460F1E730B58468CD
:1041CC0005464CB12068294603681B68984764680B
:1041DC00002CF7D1012030BD2046FCE7F0B54B6A2E
:1041EC0081B004460D461746002B37D0AC462360F1
:1041FC005CF8043B04F1200E2361BCE80F00AEE830
:10420C000F009CE807008EE807000026AA6A66618A
:10421C00A661E461E663266405F12001204606F000
:10422C0017FCAB6AA2686660D218A2F140034FF08B
:10423C00807142F8401C0B4A01A942F001029A63BA
:10424C0047F00102DA63204641F8047DE3606946D9
:10425C004FF4406206F0B8FE01B0F0BD024B1B6893
:10426C00C4E700BFC16B2000A0010020294B30B572
:10427C00186844682246002C47D06368572B07D82F
:10428C00482B11D0D268002A3FD05368572BF7D94E
:10429C00483B5360C1684839C16053B1126848212A
:1042AC00D018D150043030BD00235360C168483958
:1042BC00C160016801290BD0956875B1D468BCB197
:1042CC00EC60D2F80CC00139CCF808500160E5E77D
:1042DC000021416081600160E0E70029DED0D4F864
:1042EC000CC00139C0F804C00160CCF80850D5E707
:1042FC000029D3D0D0F808C00139DCF808C001601F
:10430C00C0F808C0CCF80C40C8E702F0A3FC0020B1
:10431C00C9E700BF3C0000202DE9F04598B000240F
:10432C001694169B002500264FF4406A01930094C6
:10433C00069507960495059602950396089409949C
:10434C00CDF828A0FFF792FF44F23012C0F2200201
:10435C0069460746FFF742FF6FF000431793179B20
:10436C004FF001080C93CDF82C80119512960F95F7
:10437C0010960D950E9613941494CDF854A0FFF747
:10438C0075FF4AF6F942C0F220020BA9FFF726FF8F
:10439C0040F2C013C2F2000383F80080F8680CF0FE
:1043AC00FFFA18B0BDE8F0852DE9F0076B4E736885
:1043BC00002B76D05968002973D0DFF8A481B2465F
:1043CC00002700225A60F268D8F80050521AF260A6
:1043DC005A68BAB9DAF80040012C76D098680028EF
:1043EC0000F09B80D3F80CC0BCF1000F00F0A5804E
:1043FC00C0F80CC0DA689060DAF80020013ACAF80C
:10440C0000205A681C68A41849D00F2947D961604C
:10441C002460A760E760EB6859186B68E960D4F812
:10442C0000C06068002B40D0D3F800906044484531
:10443C000CBF1A461A4604D0D26812B111688842D1
:10444C00FAD159688944CC4507D0DB68002B2BD0B6
:10445C001868596841188C45F7D119461346CBB1E9
:10446C0060685A68821862602868012802BF6F6011
:10447C00AF602F600ED09A68002A2ED0D3F80CC0F3
:10448C00BCF1000F33D0C2F80CC0DB689A602B680B
:10449C00013B2B6019B14A686368D3184B60736891
:1044AC0073B9BDE8F007704713462968002929D174
:1044BC00A160E1602A686C600132AC602A60CEE7D2
:1044CC00596800297FF47DAFEBE7CAF80020CAF8E1
:1044DC000420CAF808205A6894E70028DAD06B68E0
:1044EC00DB686B609A602B68013B2B60D2E700287D
:1044FC00D0D0AB689B68AB60C3F80CC02B68013B99
:10450C002B60C7E7AA683946D460AA68E760A26046
:10451C002A68AC6001322A60A1E7002C3FF472AF2C
:10452C00DAF80400C068CAF804008260DAF80020E7
:10453C00013ACAF800205A6864E7002C3FF462AFD5
:10454C00DAF808008068CAF80800C260DAF80020BF
:10455C00013ACAF800205A6854E700BF940F0020B3
:10456C003C00002040F21403C2F200030A21002296
:10457C001A71196040F20C03C2F2000319601A712F
:10458C00704700BF00B502F011FF00BD2DE9F04FE0
:10459C00ADF5057D72B648F610030021C4F2080390
:1045AC00DFF8704B48F6140C48F6180E1960C4F27C
:1045BC00080CC4F2080E2068DCF800C0DEF800E03D
:1045CC0003024FEA0E2E11EB0E0543F1000615EB1C
:1045DC000C0248F6240CC4F2080CDCF800C046F1BE
:1045EC0000034FEA0C454FEA1C4648F6200CC4F277
:1045FC00080CDCF800C0521948F61C0E4FEA0C658A
:10460C0043EB0603C4F2080E52194FEA1C26DEF8DF
:10461C0000E043EB06035218216843EB0E0388427B
:10462C0005D000204FF48071121843EB010362B6E1
:10463C0040F2C045C2F2000595E80300801841EB3A
:10464C0003014FEA501949EAC1624B0949AD0C927A
:10465C000D9305F110020FF6C02999E800030CA97F
:10466C0003C94E9210EB080005F1200241EB090141
:10467C005292002344F625128DF85831C8F292421A
:10468C005492569A8DF85C3163F317225692579ACE
:10469C002690279163F3172257920020002158AAE5
:1046AC008DF85B314A9382E803000FF6742103C93D
:1046BC004B934C934F935093539355935AAA5D93AA
:1046CC005E9340F23C0382E80300C2F20003DFF881
:1046DC00588ADFF8589ADFF858CA4FF0FF3218683A
:1046EC00CDF82481CDF83491CDF844C15C92436867
:1046FC003BB15A686B2A0AD85C2A08D0DB68002BBD
:10470C00F7D14FF0000902F0A5FA4D461FE05C3AD4
:10471C005A60C2685C3AC2605A6892B90668012E47
:10472C0001F021819968002901F0C581DD68002D17
:10473C0001F0E881CD60DA6891600268013A0260AC
:10474C005A681B685C219D1804359950A94672B6AD
:10475C0048F610020023C4F2080248F6140C48F67E
:10476C00180E1360C4F2080CC4F2080E2068DCF8B2
:10477C0000C0DEF800E002024FEA0E2E13EB0E0A28
:10478C0042F1000B48F62402C4F208021AEB0C06A4
:10479C00D2F800C04BF100074FEA0C414FEA1C4223
:1047AC00761847EB020748F62002C4F20802D2F84A
:1047BC0000C048F61C02C4F208024FEA0C61D2F8A1
:1047CC0000E076184FEA1C2247EB0207F618236824
:1047DC0047EB0E07984205D000224FF48073B618B1
:1047EC0047EB030762B640F2C0410DF5FA7AC2F20C
:1047FC00000103C90622129013910DF5F67BDFF828
:10480C003419504602F02CFB0622DFF828195846C2
:10481C0002F026FB4FF000086FF07B0385F8018057
:10482C002B7012AB0CCB921943EB0703510941EAE5
:10483C00C3616980090CA980C3F34F115B0DE9803A
:10484C002B815146062205F10A0002F009FB9BE878
:10485C000300A861A98326AB0CCB2A636B630CA95C
:10486C0003C932236B624FF028036B8495F83C30FC
:10487C00A862E96203F0FC0368F38703DBB243F040
:10488C00445343F434134FF49671EB630123E983DF
:10489C00D9B248F200034FF4A072C9F696032A84E9
:1048AC0041EA030344F62512C8F292422B6485F8C0
:1048BC0048805FFA88F3C5F8548040F20C48AA632C
:1048CC006B64ED642A65C2F20008D8F8243005F157
:1048DC004C0C002B40F0C6806B65D8F82430C8F81F
:1048EC0028C00133C8F82CC0C8F82430DFF848A819
:1048FC004FF0FF33DAF800108DF80C328DF80D32D2
:10490C0004238DF813320868002703682D220292C5
:10491C00009701971E6A84AB033383AAB0472946DC
:10492C0006464B2202F09CFA304607F079FE3046E0
:10493C0007F080FC304608F003F8304606F0D0FE55
:10494C00DAF800303146186840F284280368C2F265
:10495C0000085B6A98475F9549AD05F110034E93CB
:10496C00D8F8043060975097CDF83C91002B00F0AC
:10497C008D8740F2842CC2F2000CDCF808004368EE
:10498C004B4501F37D808368002B00F04187014685
:10499C005A684A4540F3B783002901F0718049AD4C
:1049AC0040F28428C2F2000805F114028A60509388
:1049BC00D8F804300133C8F804304FF6B061DFF892
:1049CC0068C7CFF6FF710DF5057949F801C0DFF81E
:1049DC00601731AB0022196244F6251183F834209C
:1049EC00C8F29241D962596B83F8382003F1100058
:1049FC0062F3172159635861996B03F120005862D7
:104A0C00DFF8280762F31721996318610021002051
:104A1C00D86319640FF2087103C9586499644FF094
:104A2C00FF31D96440F23C0183F83720C2F2000117
:104A3C0008685A609A60DA609A61DA619A621A635D
:104A4C001A655A6543683BB15A686B2A2ED85C2AA2
:104A5C002CD0DB68002BF7D102F0FCF8002212926C
:104A6C00154643E040F20C40C2F20000D0F828E0BA
:104A7C00DEF80430934201F21180DEF80830002B8E
:104A8C0000F0EC86704616465A68B24240F2F1834A
:104A9C00002801F0038040F20C42C2F20002C0F880
:104AAC0008C06B65536A013353621FE75C3A5A6066
:104ABC00C2685C3AC2605A6892B90668012E00F06E
:104ACC0091879D68002D01F00380D968002901F0C1
:104ADC000C80E960DA6895600268013A02605A68F5
:104AEC001B685C219D1804359950129572B648F6D6
:104AFC0010020023C4F20802136048F6180C48F6A2
:104B0C001402C4F20802C4F2080CD4F800E01268D3
:104B1C00DCF800C04FEA0E214FEA0C2C13EB0C080A
:104B2C0041F1000918EB020648F62402C4F208020F
:104B3C00106849F100070104020C761847EB0207D4
:104B4C0048F62002C4F20802106848F61C02C4F2AF
:104B5C0008020106D2F800C0020A761847EB0207D9
:104B6C00F618236847EB0C079E4505D000224FF43E
:104B7C008073B61847EB030762B640F2C0490DF5D7
:104B8C00F27BC2F2000999E800030622CDF85080AE
:104B9C00CDF85490DFF89C150DF5EE79584602F0DF
:104BAC005FF90622DFF88C15484602F059F94FF0F0
:104BBC0000086FF07B032B7085F8018014AB0CCBD5
:104BCC00921943EB0703510941EAC3616980090C4F
:104BDC00A980C3F34F115B0DE9802B815946062246
:104BEC0005F10A0002F03CF999E80300A861A983D9
:104BFC0026A903C93223286369630CAA06CA6B620F
:104C0C002B844FF0FA036B8495F83C30A962EA626E
:104C1C0003F0FC0368F38703DBB243F0445343F423
:104C2C003413EB630123D9B248F20003C9F696039F
:104C3C0041EA03034FF67472EA832B6444F625129F
:104C4C005FFA88F3C8F292426B6440F20C43AA6399
:104C5C0085F84880ED642A65C5F85480C2F20003DB
:104C6C00596A05F14C00002940F0E38569655A6AE0
:104C7C0098620132D8625A624FF0FF33DAF80010B2
:104C8C008DF808328DF8093204238DF81232086839
:104C9C00002703682D220292009701971E6A84ABAD
:104CAC00023382AAB0474B220646294602F0D8F8B6
:104CBC00304607F0B5FC304607F0BCFA304607F03A
:104CCC003FFE304606F00CFDDAF80030314618682D
:104CDC0003685B6A984731AB03F110025A6140F2EA
:104CEC008422C2F20002129851689D65DF65DF6173
:104CFC009861002900F0C2859068129943688B4234
:104D0C0040F3D08531AB40F28422C2F20002D8616C
:104D1C001433936053680133536048F610084046CF
:104D2C000A23C4F2080047F2000871930C9048F66D
:104D3C00140148F6180248F6240340460026C4F233
:104D4C000801C4F20802C4F20803C4F20D008DF885
:104D5C00C86135461291149216933090F0E002D14E
:104D6C00914200F2C981DDF854C1CDF894C05D9B2D
:104D7C00DDF81CB113F0040F18BF5595BBF1000FF3
:104D8C0000F0CC804FF0FF33DAF800108DF80432CD
:104D9C008DF8053204238DF81132086861220368FE
:104DAC000292009501951F6A84AB81AA0133B84722
:104DBC00074672B6DDF830901299C9F80060DDF83C
:104DCC00508022680B68D8F800104FEA022CCDF8FE
:104DDC0088C021954FEA012C21A903C910EB0C08BE
:104DEC0041F10009169918EB03080B6849F1000909
:104DFC00180C1B0419931A9048F6200319A903C91F
:104E0C00C4F2080318EB000849EB0109196848F6CD
:104E1C001C03C4F20803080A1B6809061C901B91AA
:104E2C001BA903C9249318EB00082395236849EBAD
:104E3C00010923A903C918EB000849EB01099A429F
:104E4C0006D000224FF4807318EB020849EB0309DB
:104E5C0062B640F2C04273ABC2F2000206CA1846F8
:104E6C001D911E920622B349039301F0F9FF06220D
:104E7C00B04975A801F0F4FF6FF06B023A707E70C8
:104E8C001DAA06CA11EB080142EB0902480940EAC7
:104E9C00C260C0F3072CB87087F803C0C0F3074C8E
:104EAC00000E7871C2F34710B871C2F34730F87135
:104EBC00C2F34750520F87F804C038727A72039BC2
:104ECC000622194607F10A0001F0CAFF75A906224D
:104EDC0007F1180001F0C4FF0BF11E011A2207F1B3
:104EEC001E0001F0BDFF0BF13801042207F1380060
:104EFC0001F0B6FF3846FE6307F092FB384607F028
:104F0C0099F9384607F01CFD384606F0E9FBDAF84B
:104F1C0000303946186803685B6A984761AF259979
:104F2C003A4671A801F05EFF85AB181800F8906C3A
:104F3C00384601F04DFE814801F04AFE0A23719378
:104F4C0072B6DDF830801299C8F80050149AD4F873
:104F5C0000E0086813684FF0000C4FEA0E291902A4
:104F6C00CDF81490CDF810C004AB0CCB571843F10E
:104F7C0000083A1848F10003DDF85880E146D8F8EB
:104F8C000000CDF85C904FEA104C0004CDF824C022
:104F9C00089008A903C9121848F62000C4F20800AA
:104FAC00D0F800C048F61C00C4F2080007684FEAAD
:104FBC001C284FEA0C6CCDF82C80CDF828C043EBA4
:104FCC00010318970AA903C9121843EB010317A987
:104FDC0003C91218206843EB0103864505D0002055
:104FEC004FF48071121843EB010362B640F2C048D3
:104FFC00C2F2000898E803008018279A41EB0301DD
:10500C004309B2EB511F43EAC16340F239814C486A
:10501C0005F0A6FB72B60C99DDF848800E60DDF841
:10502C005090D4F800E00023D8F800000693D9F88B
:10503C0000304FEA0E221902079206AB0CCB571820
:10504C0043F100083A1848F10003DDF858804FF09E
:10505C000009D8F80000CDF87C904FEA104C000401
:10506C00CDF83CC00E900EA903C9121848F62000CA
:10507C00C4F20800D0F800C048F61C00C4F20800C6
:10508C0007684FEA1C284FEA0C6CCDF84480CDF829
:10509C0040C043EB0103209710A903C9121843EB3E
:1050AC0001031FA903C91218206843EB01038645AD
:1050BC0005D000204FF48071121843EB010362B647
:1050CC0040F2C041C2F2000191E88001BF1848EBE8
:1050DC0003087909434641EAC8610DF5B0790DF52D
:1050EC00B478580998E80C0099E88001D21943EB80
:1050FC00080398427FF633AE5C9BB3F1FF3F21D19E
:10510C005598259033E69A68002A00F08183194659
:10511C0013463DE4BC04002000A3E1110000000094
:10512C00002D310100000000301021004C10210036
:10513C005810210088040020FC010020B810210028
:10514C00B0102100D8B2012101FA00FC49F2004252
:10515C00C4F20D02D2F800E080002EEA0C0CC2F86A
:10516C0000C044F28002C4F20D028218116047F2B2
:10517C000802C4F20D0243F0B0031360309A1368B6
:10518C0013F0800FFBD047F21003C4F20D031A6822
:10519C0047F20C03C4F20D031B6803EB022343F329
:1051AC000B135593259372B60C99DDF848800E605D
:1051BC00DDF85090D4F800E00023D8F800002893D4
:1051CC00D9F800304FEA0E221B02299228AA06CAEF
:1051DC00CF1842F100083A1848F10003DDF8588066
:1051EC004FF00009D8F80010CDF8B8904FEA114CE8
:1051FC000904CDF8ACC02A912AA903C9121843EBB3
:10520C00010348F62001C4F20801D1F800C048F6A9
:10521C001C01C4F208010F684FEA1C284FEA0C6C01
:10522C00CDF8B480CDF8B0C02CA903C92F971218B3
:10523C0043EB01032EA903C9121843EB01032168A8
:10524C008E4505D000204FF48071121843EB0103FA
:10525C0062B640F2C048C2F2000898E80300801819
:10526C0041EB0301430943EAC16358934B0959933A
:10527C007DE59A68002A00F0F1821846134603E493
:10528C0003D1269898423FF6C2AEDFF8940801F09D
:10529C009FFCDFF8900801F09BFC0A23719331AB63
:1052AC004FF6B062DFF88058DFF88088DFF880981E
:1052BC005C6DCFF6FF7285A98D50C3F81080C3F8D2
:1052CC00209084B104F15C0005F0C6F8DFF8643876
:1052DC0004F14400636505F095FA204606F092F857
:1052EC00204601F0BBFC31A98C6D002C00F0B48081
:1052FC0040F28420C2F200004568012D00F06D835D
:10530C00836801F11402934200F0848353B19968CD
:10531C0029B1914203D00B4689680029F9D131AAF1
:10532C00D2699A6040F2842CC2F2000CDCF80C10AA
:10533C0036AA914208BFDFF8002840F28420C2F25E
:10534C00000008BFD3604368013B4360479C002CBE
:10535C0000F08280236D4CF6CD42CCF6CC42A2FB01
:10536C000312D20802EB820252009A1A500040F249
:10537C000C4300EB020EC2F2000353F82E50DFF880
:10538C00BCC7012D03EB8E0600F00C830EF1010E51
:10539C005CF82E3004F14C01994200F055835BB15E
:1053AC009D682DB1A94203D02B46AD68002DF9D1D3
:1053BC00D4F854C0C3F808C040F20C4500EB020C02
:1053CC00C2F2000505EB8C0CDCF808E040F20C484E
:1053DC00714508BFCCF80830C2F20008821858F8A2
:1053EC002230013B48F8223094F83C30022262F320
:1053FC00010384F83C304FF0FF33DAF800108DF8DD
:10540C0000328DF8013204238DF810320868002325
:10541C000268009301932D230293156A84AB80AA32
:10542C00A847214605464B2201F01AFD284607F0F5
:10543C00F7F8284606F0FEFE284607F081FA2846C3
:10544C0006F04EF9DAF800302946186803685B6AF2
:10545C009847204601F002FC31A9C86D002872D093
:10546C0040F2842CC2F2000CDCF80440012C00F059
:10547C00A782DCF8083001F11402934200F0B882E4
:10548C0053B1996829B1914203D00B468968002920
:10549C00F9D131AAD2699A6040F28429C2F200098A
:1054AC00D9F80C1036AA914208BFDFF88C2640F2CE
:1054BC00842CC2F2000C08BFD360DCF80430013B32
:1054CC00CCF80430489800283DD0D0F898304CF6F1
:1054DC00CD41CCF6CC41A1FB0321C90801EB8101E4
:1054EC004900591ADFF858264FEA410E0EEB010518
:1054FC0052F8254002EB8506012C00F04B82013559
:10550C0052F8253000F1940C9C4500F0AF8253B159
:10551C009C682CB1A44503D02346A468002CF9D177
:10552C00D0F89C409C600EEB010402EB8404A5684F
:10553C007144AC4508BFA36052F82130013B42F8DE
:10554C00213001F08BFBDFF8FC1531AA1162DFF87A
:10555C00F8154FF6B0631161DFF8CC85DFF8EC2558
:10556C00DFF8C895DFF8C8C55E9CCFF6FF7385AD34
:10557C00EA50CDF82481CDF83491CDF844C184B1F2
:10558C0004F15C0004F068FFDFF8A83504F1440076
:10559C00636505F037F9204605F034FF204601F02D
:1055AC005DFB5F9C002C00F0B68040F28422C2F2BE
:1055BC0000025068012800F00B82936849AD05F198
:1055CC0014018B4200F01E8253B19A682AB18A42B0
:1055DC0003D013469268002AF9D1509A9A605F9CC6
:1055EC0040F28429C2F20009D9F80C100DF592781A
:1055FC0008F11402914208BFDFF83C2540F2842CDC
:10560C00C2F2000C08BFD360DCF80430013BCCF8CC
:10561C000430002C7FD0236D4CF6CD41CCF6CC4120
:10562C00A1FB0301C90801EB81014900591A4FEA9A
:10563C00410C40F20C42C2F200020CEB010352F896
:10564C00235002EB8306012D904600F09B8103F161
:10565C00010E52F82E3004F14C00984200F0FD81FE
:10566C004BB19A682AB1904203D013469268002A33
:10567C00F9D1626D9A6040F20C450CEB0102C2F25A
:10568C00000505EB8202D2F808E040F20C487045A8
:10569C006144C2F2000808BF936058F82130013B06
:1056AC0048F8213094F83C30022262F3010384F86C
:1056BC003C304FF0FF33DAF800108DF8FC318DF8E8
:1056CC00FD3104238DF80F32086800230268009323
:1056DC0001932D23029382AB0733156A7FAAA84747
:1056EC00214605464B2201F0BBFB284606F098FFED
:1056FC00284606F09FFD284607F022F9284605F0BB
:10570C00EFFFDAF800302946186803685B6A98479F
:10571C00204601F0A3FA6098002874D040F284224D
:10572C00C2F200025468012C00F0458193680DF51B
:10573C00927909F114018B4200F0748153B19A688B
:10574C002AB18A4203D013469268002AF9D1509AA2
:10575C009A60609840F28425C2F20005E9680DF564
:10576C00927C0CF11402914208BFF34A40F2842857
:10577C00C2F2000808BFD360D8F80430013BC8F867
:10578C00043000283FD0D0F898304CF6CD4CCCF6F5
:10579C00CC4CACFB039C4FEADC0C0CEB8C0C4FEAB6
:1057AC004C0CCCEB030CE64A4FEA4C0404EB0C0318
:1057BC0052F8231002EB8306012900F0DA805D1CFD
:1057CC0052F8253000F1940E9E4500F0338153B110
:1057DC00996829B18E4503D00B4689680029F9D107
:1057EC00D0F89C10996004EB0C0102EB81018D68E0
:1057FC00A444AE4508BF8B6052F82C30013B42F8F4
:10580C002C3001F02BFA00200DF5057DBDE8F08F52
:10581C0040F28421C2F20001CA6849AD05F11403BB
:10582C009360CB604B680022013350924B60FFF7C2
:10583C00C4B8D3F828E0DEF80430934265D940F2BE
:10584C000C48C5F854E0C2F20008D8F82430C8F867
:10585C0028000133C8F82430FFF70EBA40F20C4090
:10586C00C2F20000C36AC3F808C000236B65436A28
:10587C00C0F82CC001334362FFF738B8D961143338
:10588C009360D36001235360FFF747BA509305F13F
:10589C001403C8F80830C8F80C300123C8F80430D9
:1058AC00FFF78BB88368DBB1DDF848C001465A6856
:1058BC00624510DD00293FF425AA31A840F2842569
:1058CC00C2F2000500F114028A60C3616B680133F7
:1058DC006B60FFF722BA9A6812B119461346E6E7D5
:1058EC0040F28429C2F20009D9F80C1031AA02F155
:1058FC0014038B60C9F80C30D9F804300021013343
:10590C00D161C9F80430FFF708BADEF80830C3B12A
:10591C00714694465A6862450ED900298FD040F2E0
:10592C000C49C2F2000988606B65D9F82430013348
:10593C00C9F82430FFF7A0B99A6812B1194613467A
:10594C00E8E740F20C48C2F20008D8F82C30986016
:10595C0000236B65D8F82430C8F82C000133C8F844
:10596C002430FFF789B94260826002605A68FEF702
:10597C00E8BE002103F1010C42F82C10B16042F892
:10598C0023103EE70021581C42F82010B16042F869
:10599C00231087E60023691C42F82130B36042F8DB
:1059AC002530CEE500230EF101024CF82230B36015
:1059BC004CF82E3018E500239360D3605360E0E67A
:1059CC000023CCF80830CCF80C30CCF8043079E556
:1059DC0000239360D36053601BE600238360C36095
:1059EC004360B3E44260826002605A68FFF778B8A3
:1059FC00002C3FF46AADCB69013CCCF80830CCF8F4
:105A0C0004405FE500283FF406AE509B01389360DC
:105A1C005060FEE5002D3FF49DACCB69013D8360E9
:105A2C00456093E4002C3FF4AEAE509B013C936078
:105A3C005460A6E600293FF4E4AED0F89C3001395E
:105A4C0042F825303160DCE6002D3FF4CDAC636DBF
:105A5C00013D4CF82E303560C6E4002D3FF422AEEB
:105A6C00636D013D42F82E3035601BE6002C3FF48F
:105A7C0068ADD0F89C30013C42F82530346060E5CC
:105A8C00509040F2842149A8C2F2000100F11403A5
:105A9C008B604B6801334B60FEF78FBF40F20C41BB
:105AAC00C5F854E0C2F200014B6AC1F828C00133BA
:105ABC004B62FEF71BBF002E3EF443AE4168C96833
:105ACC0041608A600268013A02605A68FEF739BE8A
:105ADC00002E3FF405A84168C96841608A600268DD
:105AEC00013A02605A68FEF7FBBF002E3EF4F8AF95
:105AFC00816889688160CA600268013A02605A68EC
:105B0C00FEF7EEBF002E3EF41CAE81688968816002
:105B1C00CA600268013A02605A68FEF712BE00BF02
:105B2C00BC102100B8102100301021004C102100B5
:105B3C00581021008C102100840200200C0400203D
:105B4C000C020020AC102100A01021001C10210020
:105B5C00014B0360704700BF8C102100014B0360A8
:105B6C00704700BF8C102100014B0360704700BFD1
:105B7C008C102100024B00B5036001F06FF800BDE2
:105B8C008C102100024B00B5036001F067F800BDDA
:105B9C008C102100024B00B5036001F05FF800BDD2
:105BAC008C10210000B5406804F004FE00BD00BF5D
:105BBC00A0F1200000E000BF2DE9F04D054684B0B7
:105BCC0072B648F610030022C4F20803DFF808E2AC
:105BDC0048F614011A60C4F20801DEF800C00E6821
:105BEC0048F61801C4F208010F684FEA0C243F0272
:105BFC00D01944F10001831941F1000448F6240145
:105C0C00C4F208010E683004310C1B1844EB01047B
:105C1C0048F62001C4F208010E6848F61C01C4F2D3
:105C2C00080130060F68310A1B1844EB01049B185D
:105C3C00DEF8002044EB0704944505D000214FF416
:105C4C0080725B1844EB020462B6644A06CAC91837
:105C5C0042EB04024B0943EAC263EB635309EA6C5F
:105C6C000121D0B201FA00FE2B6449F20043C4F2C8
:105C7C000D03D3F800C020302CEA0E0CC3F800C082
:105C8C0044F20003C4F20D0343F8201047F208035A
:105C9C0042F0B002C4F20D031A6047F20002C4F2E3
:105CAC000D02136813F0800FFBD047F21003C4F2FF
:105CBC000D031A6847F20C03C4F20D031B68284647
:105CCC0003EB022343F30B132B632B689B6898475E
:105CDC00EB6D33B32A6BC3F82720AA8F5A80EA8F57
:105CEC009A80B5F84020DA80B5F842201A81EC6D24
:105CFC0005F13C0B9BE8000C6388A28805F1440875
:105D0C0098E8800143EA02412289E38843EA02438E
:105D1C00D4F888209A4204D858D0D4F890209A42CB
:105D2C0002D204B0BDE8F08D03D1D4F88C308B4294
:105D3C00F7D32B4D4FF0FF33D4F880C029688DF882
:105D4C000C308DF80D3004238DF80F3008680023CB
:105D5C00026800930193ACF11E030293166A0DF1D5
:105D6C000F0303AAB047D4F880200646214601F061
:105D7C0077F8F078B37817EB0A0143EA002330790F
:105D8C0043EA0043707943EA0063CB1AC3F307225A
:105D9C0086F8233086F82420C3F307421B0E86F8BE
:105DAC00263086F82520304606F03AFC304606F0C0
:105DBC0041FA304606F0C4FD304605F091FC2B68E4
:105DCC003146186803685B6A9847AAE7D4F88420C0
:105DDC008A42A2D9A5E700BFBC040020C004002061
:105DEC00FC0100202DE9F04FC3B2924601229A40EB
:105DFC0096B0129044F280009B001491C4F20D00F6
:105E0C0048F610011818D243C4F2080113921190ED
:105E1C000C9148F6140248F6180348F6240048F68C
:105E2C001C01C4F20802C4F20803C4F20800C4F254
:105E3C00080147F2000BDFF898C20D920E930F90F9
:105E4C001091C4F20D0B11E000F0D68040F2A411B9
:105E5C00C2F20001CB681E68B36E002B40F0BA8012
:105E6C00181E18BF0120002800F0C38072B60C9ACF
:105E7C0000231360DCF800900D9A4FEA092080464D
:105E8C000E9816681F460368089719027A180F991E
:105E9C0048F100030868921943F10003010C000457
:105EAC000591049004A903C9121848F62000C4F205
:105EBC00080043EB0103006810990E68010A000604
:105ECC000791069006A903C90996121843EB010322
:105EDC0008A903C91218DCF8000043EB0103814543
:105EEC0005D000204FF48071121843EB010362B609
:105EFC0040F2C044C2F2000494E80300801841EB65
:105F0C000301DAF85C304D09D3F890204409AA4219
:105F1C0044EAC16498D949F20042C4F20D021168F6
:105F2C00139800EA01011160119901220A60129A7A
:105F3C0042F0B00147F20802C4F20D021160DBF826
:105F4C00002012F0800FFAD047F21002C4F20D02BA
:105F5C00116847F20C02C4F20D021268CAF83C40F8
:105F6C00CAF8405002EB012242F30B12CAF830205F
:105F7C00C3F82720220C9A802A0C5C80DD801A81C1
:105F8C00DAF85C90B9F80230B9F80410B9F80820C6
:105F9C0043EA0141B9F8063043EA0243D9F88820B4
:105FAC009A4204D82ED0D9F890209A4232D2DAF8FC
:105FBC000030CDF80CC09B685046984740F2A411B5
:105FCC00C2F20001CB68DDF80CC01E68B36E002B6A
:105FDC003FF446AF06F14400CDF80CC004F0FEFBD4
:105FEC00B36EDDF80CC0181E18BF012000287FF41A
:105FFC003DAF16B0BDE8F08FD3F88C20A2427FF6EF
:10600C0025AF88E7D9F884208A42D0D8D9F89020D7
:10601C009A42CCD303D1D9F88C308B42C7D340F2FF
:10602C00FC13C2F2000319684FF0FF33D9F880E07B
:10603C008DF854308DF8553004238DF8573008689E
:10604C000023026800930193AEF11E030293CDF876
:10605C000CC0166A0DF1570315AAB0474946D9F87A
:10606C008020064600F0FCFE149AF378A018B27853
:10607C0042EA0322337942EA0342737942EA036328
:10608C00C31AC3F3072286F8233086F82420C3F3FF
:10609C0007421B0E86F8252086F82630304606F07F
:1060AC00BFFA304606F0C6F8304606F049FC3046DA
:1060BC0005F016FB40F2FC10C2F2000003683146FA
:1060CC00186803685B6A9847DDF80CC06FE700BF7F
:1060DC00BC040020A0F1100000E000BF2DE9F04F3F
:1060EC001C461B789DB0C3F3C103012B05467FD022
:1060FC0005D3022B00F0C6801DB0BDE8F08F94F8DC
:10610C00282094F82910C36D42EA012194F82A2022
:10611C0094F82D0041EA024194F82B2041EA0261E7
:10612C0094F82C2042EA002294F82E0042EA004215
:10613C0094F82F00C3F8841042EA0062C3F8882058
:10614C0094F8302094F8311094F8350042EA01218B
:10615C0094F8322041EA024194F8332041EA02617A
:10616C0094F8342042EA002294F8360042EA0042C5
:10617C0094F83700C3F88C1042EA0062C3F8902000
:10618C0094F83C3003F00303022B00F0688194F880
:10619C00413094F8422094F8461043EA022294F8D5
:1061AC00433042EA034294F8443042EA036294F8E2
:1061BC00453043EA012394F8471043EA014394F82D
:1061CC00481043EA016352EA030100F06381686DF1
:1061DC00002800F07782D0F85CC0016E5CEA010107
:1061EC008AD05C3011A91192129304F07BF983E7E9
:1061FC00E278A37843EA0223227943EA02436279E4
:10620C0043EA0261E279A37943EA0223227A43EA60
:10621C000243627A43EA0263026C9A4203D331D19D
:10622C00C36B8B422ED22B6D13F0040F00F02E811A
:10623C002A6BD4F82730D3182B6394F8223004F14E
:10624C000A0185F83430062205F1350000F008FE0D
:10625C00A378E278E17943EA02222379284642EADC
:10626C000342637942EA0362A37943EA0123217A68
:10627C0043EA0143617AEA6343EA01632B642B68C6
:10628C009B6898472B6D13F0030F3FF435AFD5F88F
:10629C0058A0BAF1000F00F0DA80DFF8B0B54FF07B
:1062AC00FF33DBF800108DF86C308DF86D30042363
:1062BC008DF87230086800260368612202920096FD
:1062CC0001961F6A1BAA0DF17203B847074672B6F6
:1062DC0048F61003C4F208031E60DFF8740548F694
:1062EC001403C4F208030168D3F800C048F618037D
:1062FC00C4F20803D3F800E04FEA01294FEA0E2E4E
:10630C0016EB0E0249F1000312EB0C0843F10009E5
:10631C0048F62403C4F20803D3F800C04FEA0C4239
:10632C004FEA1C4318EB020849EB030948F620031B
:10633C00C4F20803D3F800E048F61C03C4F20803C7
:10634C004FEA0E62D3F800C018EB02084FEA1E2386
:10635C0049EB0309036818EB060849EB0C09994251
:10636C0006D000224FF4807318EB020849EB0309A6
:10637C0062B6DFF8E03415AE93E8060030460491BF
:10638C0005920622DFF8D01400F06AFD17AB184610
:10639C000622DFF8C414039300F062FD6FF06B0269
:1063AC003A7000227A7004AA06CA11EB080142EB7B
:1063BC000902480940EAC260C0F3072CB87087F89C
:1063CC0003C0C0F3074C000E7871C2F34710B871CC
:1063DC00C2F34730F871C2F34750520F87F804C02C
:1063EC0038727A723146062207F10A0000F038FD45
:1063FC00039B0622194607F1180000F031FD0AF143
:10640C001E011A2207F11E0000F02AFD0AF13801C4
:10641C00042207F1380000F023FD04F13C010422B2
:10642C0007F13C0000F01CFD384606F0F9F8384640
:10643C0005F000FF384606F083FA384605F050F9AF
:10644C00DBF800303946186803685B6A984705F139
:10645C00350004F10A01062200F002FD4CE66C6DD9
:10646C00002C3FF449AE04F15C0003F0F5FFFB4B4C
:10647C0004F14400636504F0C5F9204604F0C2FF42
:10648C00204600F0EBFB00236B6535E6D4F8273093
:10649C002B63D2E6EA6C0121D0B211FA00F649F274
:1064AC000043C4F20D03D3F800C020302CEA060CD4
:1064BC00C3F800C044F20003C4F20D0343F82010EB
:1064CC0047F2080342F0B002C4F20D031A6047F21F
:1064DC000002C4F20D02136813F0800FFBD047F2D8
:1064EC001003C4F20D03D3F800C047F20C03C4F23E
:1064FC000D031B6803EB0C2C4CF30B1CC5F830C0C4
:10650C0072B648F610030021C4F20803DFF840838A
:10651C0048F614061960C4F20806D8F80000D6F83C
:10652C0000A048F61806C4F20806D6F800B003021C
:10653C004FEA0B2B11EB0B0643F1000716EB0A028B
:10654C0048F62406C4F20806D6F800A047F100036A
:10655C004FEA0A46921948F62006C4F20806D6F805
:10656C0000B048F61C06C4F208064FEA1A47D6F8E3
:10657C0000A04FEA0B6643EB07034FEA1B27921967
:10658C0043EB07035218D8F8001043EB0A03884278
:10659C00574605D000204FF48071121843EB0103CD
:1065AC0062B6AC4903C9801841EB03014B092B645B
:1065BC004209EB6D42EAC162EA635A80EA8FC3F882
:1065CC0027C09A80B5F84010D980B5F842201A81BE
:1065DC0094F83E2094F83D30EE6D43EA022394F893
:1065EC003F2094F8404043EA024343EA0464B288F3
:1065FC00738805F13C0999E8000343EA02413289AA
:10660C00F38843EA0243D6F888209A423FF674ADE9
:10661C0000F0FB80D6F890209A42FFF46DAD04D1C7
:10662C00D6F88C308B42FFF467AD884D4FF0FF33BA
:10663C00D6F880C029688DF870308DF8713004233D
:10664C008DF8733008680023026800930193ACF155
:10665C001E030293176A0DF173031CAAB847D6F8F0
:10666C0080200746314600F0FBFBF878BB7818EB2E
:10667C00040143EA0023387943EA0043787943EA7A
:10668C000063CB1AC3F3072287F8233087F8242042
:10669C00C3F307421B0E87F8263087F825203846AF
:1066AC0005F0BEFF384605F0C5FD384606F048F942
:1066BC00384605F015F82B683946186803685B6A8C
:1066CC00984719E51392149394F83E2094F83D30B2
:1066DC0094F840A043EA022394F83F2043EA024393
:1066EC0043EA0A6A5E4B186843683BB15A68932ABE
:1066FC0070D8842A6ED0DB68002BF7D100F0AAFA90
:10670C000024139BD5F84C8008931A93149B0222F7
:10671C0009931A9B06920793524B00261B68002183
:10672C0000224FF440670C910D920A910B920E9639
:10673C000F9610972360069B04F1200C2361666171
:10674C00A661E4610DF11C0EBEE80F00ACE80F0071
:10675C009EE807008CE80700E6632664109A204642
:10676C000EA904F075F96660A268109BD318A3F10A
:10677C0040024FF0807143F8401C3B493B4841F0CC
:10678C000101916340F00101D1631DA943F838ACBC
:10679C0043F83C8C43F8345CE2603A4641F8100D07
:1067AC0004F14407204604F00FFC3846314603F050
:1067BC00FBFF2F4B04F15C00636504F1540213A939
:1067CC004FF0FF33A76503F03FFF204604F09EFB1C
:1067DC006C6591E4843A5A60C268843AC2605A6823
:1067EC006AB90168012916D09C6824B3DE68BEB171
:1067FC00E660DA6894600268013A02605A681B68C5
:10680C0084219C18995004347BE7D6F884208A4262
:10681C007FF600AF70E44260826002605A68EEE777
:10682C000029ECD0816889688160CA600268013AED
:10683C0002605A68E3E70029E1D04168C968416009
:10684C008A600268013A02605A68D8E7FC010020AD
:10685C00BC040020C0040020880400208C102100FF
:10686C003C000020A0010020C16B2000F15D200045
:10687C006410210070B500F03FFBB5494B68002B4C
:10688C0000F059815A6846F20300824209D8B2F5E9
:10689C00C04F06D0DB68002B00F04D815A68824255
:1068AC00F5D9A2F5C0425A60CA68A948A2F5C042FF
:1068BC00CA605A6892B90468012C00F0EF8099689C
:1068CC00002900F01E81DD68002D00F02881CD60CC
:1068DC00DA6891600268013A02605A681968DFF858
:1068EC0074C200238C18CCF80030CCF80430CCF8EF
:1068FC000830CCF80C304CD04FF4C0408C50606059
:10690C00A360E360DCF80C301B18CCF80C30DCF81E
:10691C00043051F802E06068002B00F0A7801D687D
:10692C007044A8420CBF1A461A4604D0D26812B161
:10693C0011688842FAD159686D18AE4508D0DB68E9
:10694C00002B00F092801868596841188E45F6D1DA
:10695C0019461346C3B160685A6882186260DCF845
:10696C000000012800F092809A68002A00F09B80B9
:10697C00DD68002D00F0A680D560DB689A60DCF83D
:10698C000030013BCCF8003019B14A686368D31869
:10699C004B60714BC3F800C000F0EEFB00F016FD2D
:1069AC006E4B002293E8300043F24803C4F2030319
:1069BC0019686B4B55181868234643F1000644F6CA
:1069CC006D63C4F2C61305FB03F505F5405503686A
:1069DC003935644CB5F1FF3F28BF0135DB6A2560C2
:1069EC0098470378002B40F098804178003918BF05
:1069FC00012149F20043C4F20D031A6822F020026F
:106A0C001A6044F29402C4F20D020123136047F29F
:106A1C000802C4F20D02B523136047F20002C4F25F
:106A2C000D02136813F0800FFBD047F21002C4F272
:106A3C000D02136847F20C02C4F20D02126881EACF
:106A4C00050502EB032244F66D63C4F2C61303FB87
:106A5C0005F505F540553935B5F1FF3F28BF013532
:106A6C0042F30B135D40256070BD1346DCF800103B
:106A7C00002936D1A160E160DCF80020CCF804409C
:106A8C000132CCF80840CCF8002063E70023CCF8A6
:106A9C000430CCF80830CCF8003075E742608260E6
:106AAC0002605A681AE700283FF46EAFDCF8043035
:106ABC00DB68CCF804309A60DCF80030013BCCF891
:106ACC00003061E700283FF45FAFDCF808309B68CA
:106ADC00CCF80830DD60DCF80030013BCCF800303D
:106AEC0052E7DCF808200021D460DCF80820E160D3
:106AFC00A260DCF80020CCF808400132CCF8002071
:106B0C0028E7002C3FF4EAAE4168C96841608A600E
:106B1C000268013A02605A68E0E6012169E7002C3C
:106B2C003FF4DCAE816889688160CA600268013A12
:106B3C0002605A68D2E6DFF81CC00023CCF80030A3
:106B4C00CCF80430CCF80830CCF80C3021E700BF7E
:106B5C00940F00202C0000203C000020A40F0020EB
:106B6C00D40400204800002000B500F0A5FA40F243
:106B7C0094430022C2F200031A6040F29043C2F226
:106B8C0000031A6040F22403C2F200030A211A71B6
:106B9C00196040F21C03C2F2000319601A7100BDA7
:106BAC00704700BF40F24003C2F2000300221A609B
:106BBC005A60704700B5004604F0E0FA00BD00BF13
:106BCC0000B504F0DBFA00BD00B509F0F1FC00BD26
:106BDC002DE9F045002507467C5D1C4EAA46DFF8E2
:106BEC00708084B1092C29D00A2C18D03368204627
:106BFC000133336009F03CFD33684F2B05DC013564
:106C0C007C5D002CEED1BDE8F0850D2009F030FD47
:106C1C000A2009F02DFD0135C6F800A0F0E70D2083
:106C2C0009F026FD204609F023FDD8F80030C6F8FF
:106C3C0000A00133C8F800300135E1E7204609F027
:106C4C0017FD3368013508333360D9E79004002011
:106C5C009404002000B5FFF7B7FF00BD3D4B70B4A6
:106C6C001D6850F8043C041F0F2B41D9002240F83A
:106C7C00044C6360A260E260EA68D318EB606B6856
:106C8C0050F804CC6068002B35D01E686044B042CC
:106C9C000CBF1A461A4604D0D26812B11168884249
:106CAC00FAD159687618B44507D0DB68002B21D08F
:106CBC001868596841188C45F7D11946134693B199
:106CCC0060685A6882186260286801281DD09A682A
:106CDC00002A1FD0DE68002E31D0D660DB689A60A7
:106CEC002B68013B2B6019B14A686368D3184B6061
:106CFC0070BC704713462968B1B9A160E1602A687D
:106D0C006C600132AC602A60D9E700236B60AB6029
:106D1C002B60E8E70028E6D06B68DB686B609A6054
:106D2C002B68013B2B60DEE7AA680021D460AA68BF
:106D3C00E160A2602A68AC6001322A60BFE70028DB
:106D4C00D1D0AB689B68AB60DE602B68013B2B60DD
:106D5C00C9E700BF3C00002070B400293BD0B1F55E
:106D6C00807F1BD9D0F800C0BCF1080F14BF0024E1
:106D7C000124BCF1100F08BF44F0010484B14FF0A2
:106D8C00300C02F803C0D0F800C00133BCF1100F76
:106D9C0006D14FF0780C02F803C00133D0F800C0D4
:106DAC000C465D1CB4FBFCF41E462B46002CF8D1A3
:106DBC000B4C9219B1FBFCF30CFB131C14F80C30AC
:106DCC0002F80139D0F800C0B1FBFCF10029F1D177
:106DDC00284670BC70473021D154581CF9E700BFCD
:106DEC00C0102100002900B503DB0023FFF7B4FF1E
:106DFC0000BD2D23137049420123F7E7032A30B459
:106E0C0005460C4610D941EA000313F0030F0CD1D0
:106E1C00D0F800C00B689C4504D1043A043004310E
:106E2C00032AF5D805460C46B2B1287894F800C070
:106E3C0060450ED1013A002372B105EB030C9CF8AE
:106E4C00010004EB030C9CF801C00133013A6045CE
:106E5C00F2D0CCEB000000E0002030BC704700BF4B
:106E6C000F2A30B405460C4642D941EA000313F010
:106E7C00030F02BF14468C46034609D0002314F8B6
:106E8C0003C005F803C001339A42F8D130BC7047F7
:106E9C00DCF80050103C1D60DCF804505D60DCF840
:106EAC0008509D60DCF80C500CF1100CDD601033B8
:106EBC000F2CEDD8A2F1100404F00F0224F00F04F3
:106ECC00103405190C19032A12D9002354F803C0E5
:106EDC0045F803C00433C3EB020CBCF1030FF5D827
:106EEC00043A22F003030433ED18E41802F0030211
:106EFC00002AC3D1CAE700BF00B500F003F800F0C8
:106F0C0095F800BDDFF81CC147F2F832C2F200025E
:106F1C00CCEB020270B4002A4AD00023424DCCF8CC
:106F2C0000C0CCF80420CCF80830CCF80C30EB685E
:106F3C006446D318EB606B68002B3CD01E680CEBDE
:106F4C008200B0420CBF1A461A4604D0D26812B165
:106F5C0011688842FAD1596806EB8106B44208D010
:106F6C00DB68002B26D05868196801EB80018C4235
:106F7C00F6D119461346ABB1DCF804005A688218F6
:106F8C00CCF804202C68284A012C23D098680028BF
:106F9C0025D0DD68002D3AD0C560DB689860136899
:106FAC00013B136021B14A68DCF80430D3184B6004
:106FBC0070BC704713462A681B48D2B90121CCF823
:106FCC000820CCF80C200160C0F804C0C0F808C040
:106FDC001146D0E70023536093601360E2E7002C66
:106FEC00E0D05368DB68536098601368013B136012
:106FFC00D8E781680132C1F80CC08168CCF8081060
:10700C000021CCF80C10C0F808C00260B3E7002CCB
:10701C00C8D093689B689360DD601368013B136074
:10702C00C0E700BFAC0F0020940F002043F20C030C
:10703C00C4F203031A68122022F001021A6042F211
:10704C000802C4F20D02116841F00801116042F20D
:10705C000C02C4F20D02116841F00801116042F2F9
:10706C001002C4F20D02116841F00801116043F2E4
:10707C0000020021C4F20302116043F20402C4F2C4
:10708C000302106043F22802C4F203024FF0FF30F7
:10709C00106043F23802C4F20302116043F218028A
:1070AC00C4F20302116841F0010111601A6842F048
:1070BC0001021A60704700BF4CF22043C4F20D036A
:1070CC001A6822F0C0021A604CF20043C4F20D039D
:1070DC001A6822F0C0021A6044F2F8030122C4F2CA
:1070EC000D031A6044F2FC03C4F20D031A6042F261
:1070FC000002C4F20D0211684FF6F873CFF6DC6390
:10710C0001EA030343F4081342F204011360C4F2CE
:10711C000D010A6840F20003C0F2011302EA0303F6
:10712C00002BF6D142F20003C4F20D031A6822F4CC
:10713C00E0621A6042F20402C4F20D02136813F00A
:10714C00806FFBD0704700BF4EF61453CEF2000395
:10715C001A6842F001021A6042F29803C4F20D035D
:10716C001A6842F001021A604EF60853CEF2000380
:10717C004FF401121A60704700B5FFF7E5FF03F0FA
:10718C0017F800F019F800F09BF800F009F800F07F
:10719C0001F800BD00B5002002F046FB00BD00BFA9
:1071AC00044B082203F5807183F8002801338B42CD
:1071BC00FAD17047700600204EF210034EF21802FE
:1071CC00CEF200030021CEF20002196011604EF2E3
:1071DC001402CEF200024FF4FA41116006221A603A
:1071EC0040F2496140F27052C2F20002C0F2210139
:1071FC00D1631A6842F001021A60704740F25103E1
:10720C000022C2F200031A7040F25003C2F20003D3
:10721C001A7040F24C03C2F200030221196040F6CE
:10722C008473C2F200031A6040F69073C2F200033A
:10723C0049F2380C1A60C4F2080C032349F24000DE
:10724C0049F24C01CCF8003030B4C4F208000424EC
:10725C00C4F2080149F244030460C4F208030A6052
:10726C001D6845F040051D601D6845F008051D6052
:10727C001D6845F008051D602023CCF80040026015
:10728C000B6049F25003C4F208031A6842F0800202
:10729C001A601A6842F010021A6049F21C03C4F218
:1072AC00080301221A6049F22403C4F208031A608D
:1072BC0049F22C03C4F208031C6030BC704700BFB9
:1072CC004BF22043C4F20D031A682DE9F04822F06A
:1072DC0004021A604BF20043C4F20D031A6842F028
:1072EC0004021A604BF21003C4F20D03FF221A6061
:1072FC0049F23C02C4F20802136843F00103136024
:10730C00136843F002031360136813F0800FFBD073
:10731C0049F20403C4F208031A6822F001021A604D
:10732C00FFF76CFF1D4B01221A601D4A1D4BC3F861
:10733C00F0204EF20413CEF200034FF480521A6088
:10734C00EFF31087FFB207B162B6174843F2480655
:10735C00C4F2030690E80018316800225B4612EB79
:10736C00010B49F20002C0F2D03243F1000C0023B1
:10737C001BEB020B4CEB030C90E80C003168002467
:10738C001546621845F100039C45F5D801D193458B
:10739C00F2D807B162B6BDE8F08800BF4C000020FF
:1073AC00FD07210070050020A40F002000B540F25D
:1073BC00D443C2F2000381B01B6801A840F8043D1D
:1073CC00684600F06FFC01B000BD00BF00B502F0D4
:1073DC0047FF00F001F800BD704700BF40F2FC13FE
:1073EC00C2F200031B680146186800B5036804224A
:1073FC001B68984700BD00BF002301604360836099
:10740C00C3607047F0B5624D624C64232B7000234F
:10741C00074683B023716371A370E37023706370AC
:10742C004FF028105C4908221E46FFF7E7FC28B9EC
:10743C0026716671A670E67026706670574B042232
:10744C001B683946186803681B689847237962796A
:10745C0043EA0220A378E27843EA02212378627897
:10746C0053EA022274D04E4B186843683BB15A68F9
:10747C00572A08D8482A06D0DB68002BF7D1FFF72B
:10748C00E9FB00241BE0483A5A60C268483AC260E3
:10749C005A687AB90468012C5FD09968002961D0C8
:1074AC00DE68002E69D0CE60DA6891600268013A1D
:1074BC0002605A681B6848219C1899500434394B57
:1074CC0001221B6822614FF6FD722360C7F6FF7222
:1074DC000023A36163606361002100920022616359
:1074EC00A263E16222636162A262E461009A03A971
:1074FC002262E3632364204641F8043D4FF440626A
:10750C0003F0A6FAA36803F53C614FF08070C3F852
:10751C00C00B2548254A40F00100C3F8F80B42F097
:10752C000100C3F8FC0BE16003A941F8082D2046CB
:10753C004FF4406203F048FD2B784F2B06D81C4CBF
:10754C00E36803F053FB2B784F2BF9D903B0F0BD54
:10755C00002988D1002886D1EEE742608260026063
:10756C005A68A7E7002CA5D04168C96841608A60B9
:10757C000268013A02605A689CE7002C9AD0816834
:10758C0089688160CA600268013A02605A6891E7B2
:10759C0094020020880400202C112100FC01002002
:1075AC003C000020A0010020C16B20007978200055
:1075BC00A40100202DE9F04FA34E014633797779D1
:1075CC00F07843EA0727B378727843EA00203378DF
:1075DC0098B053EA022200F01A819C4B04221B68DB
:1075EC00186803681B6898473379727943EA02205C
:1075FC00B378F27843EA02213378727853EA0222A4
:10760C0000F0FD80DFF848B2DFF848C29248CDF8B0
:10761C0034B0CDF830C0119048F6100B48F6200766
:10762C0048F61C06C4F2080B48F6140948F6180A6A
:10763C0048F62408C4F20807C4F20806C4F2080984
:10764C00C4F2080AC4F20808CDF808B000970196F5
:10765C0072B6029800210C9B01601A68D9F80040A0
:10766C00DAF8003016021B0211EB030B0D46D8F8AA
:10767C00001046F1000C1BEB040310944CF10004B9
:10768C004FEA114C0904CDF81CC0009F069106A9C5
:10769C0003C91B1844EB0104DDF804B03968DBF8AE
:1076AC0000C00F0A09060997089108A903C9CDF86B
:1076BC002CC01B180A950C9F44EB01040AA903C9A2
:1076CC001B1844EB010439688A4205D000204FF4A2
:1076DC0080711B1844EB010462B6119F0D9897E85A
:1076EC000600DDF834B0C91842EB0402D0F804C02F
:1076FC004B09DBF800B043EAC26352096245CDF88E
:10770C0040B005D802D018B0BDE8F08F5B45FAD96F
:10771C0072B6029A00230C9C136022680E93D9F85F
:10772C0000E0DAF8003017020F974FEA032B0EA98E
:10773C0003C910EB0B0341F10004D8F8001013EB54
:10774C000E0344F100044FEA114B0904CDF84CB080
:10775C00009F129112A903C91B1844EB010439684C
:10776C00DDF804B00F0A09061597149114A903C982
:10777C00DBF800E01B1844EB01040021CDF85CE0C1
:10778C0016910C9F16A903C91B1844EB0104396808
:10779C008A4205D000204FF480711B1844EB010481
:1077AC0062B6119FDDF840B097E80600C91842EBAD
:1077BC0004024FEA511ECDF810B0CDF814C004A944
:1077CC0003C926A418CC4EEAC26E5209C01841EB6C
:1077DC0004018A420490059107D804D0214BDB6840
:1077EC0003F004FA34E78645F8D91F4B002000213A
:1077FC0083E803001B4BDB6803F0F8F928E7A9B119
:10780C001349144A144B0D910C92119304E7002860
:10781C007FF4E3AE002F7FF4E0AE0D484FF0FF3263
:10782C004FF0FF33074680E80C00D6E600283FF403
:10783C006AAF074FDFF81CB0DFF81CC00D97CDF80E
:10784C0030B0CDF844C0E7E688040020FC010020ED
:10785C00D8010020BC040020C004002000A3E111CA
:10786C0000000000A4010020EC0100202DE9F04FE5
:10787C0048F6100048F6140148F6180248F624039E
:10788C0048F6200548F61C06B2B0C4F20800C4F253
:10789C000801C4F20802C4F20803C4F20805C4F2D9
:1078AC000806FB4CDFF8EC93119012911392149391
:1078BC00159516961CE140F2FC13C2F200031968F0
:1078CC004FF0FF338DF8C4308DF8C53004238DF89C
:1078DC00C7300868002603680322029200960196BE
:1078EC001D6A31AA0DF1C703A847054672B6119F50
:1078FC00DDF848E03E6013982368DEF8002001684C
:10790C004FEA03284FEA012CCDF880801F961FA95F
:10791C0003C910EB0C0741F100081499BF180A6851
:10792C0048F100084FEA124E1204CDF870E01B9299
:10793C001BA903C93F1848EB01081599DDF858E05D
:10794C000A68DEF800C0110A12061D921E911DA9CC
:10795C0003C9CDF888C03F18219648EB010821AA2D
:10796C0006CA7F1848EB02082268934205D0002211
:10797C004FF48073BF1848EB030862B6062299E8EF
:10798C0003000B900C912FA8C349FFF769FA06224C
:10799C002DA8C149FFF764FA00266FF063032B7022
:1079AC006E700BAB0CCBD21943EB0803510941EAB7
:1079BC00C361C1F30720A970E870C1F30740090E39
:1079CC006971C3F34711A971C3F34731E971C3F36B
:1079DC0047515B0F6B722871297206222FA905F192
:1079EC000A00FFF73DFA2DA9062205F11800FFF752
:1079FC0037FA0523AB77284604F012FE284604F02C
:107A0C0019FC284604F09CFF284603F069FE72B668
:107A1C001199129F0E60DDF84C80D4F800E03868A4
:107A2C00D8F800304FEA0E2219020796089207ABDD
:107A3C000CCB571843F100083A18149F48F1000377
:107A4C003868169F4FEA104C0004CDF810C0039014
:107A5C0003A903C9121843EB010315990996086889
:107A6C00D7F800C0010A00060691059005A903C9C4
:107A7C00CDF828C01218206843EB010309AFC0CF22
:107A8C00921943EB0703864505D000204FF4807113
:107A9C00121843EB010362B699E80300801841EB1E
:107AAC0003014FEA501A49F280624AEAC16AC0F2F5
:107ABC0098024FEA511B002312EB0A0243EB0B0313
:107ACC00C5F89C20C5F8A03040F2FC11C2F20001B0
:107ADC000B682946186803685B6A984749F280620C
:107AEC00C0F2980200232BA82B922C9302F038FEA4
:107AFC0040F29427C2F200073B784F2B7FF6DBAEA7
:107B0C0072B6DDF844800021C8F800102068129A83
:107B1C00139D4FEA002CCDF860C0D2F800C02B6842
:107B2C0017911B0217AE60CEEF1846F10008149E99
:107B3C0017EB0C02D6F800C048F100034FEA1C48C2
:107B4C004FEA0C4CCDF834C0CDF838800DAE60CE79
:107B5C00521943EB0603159E169FD6F800C0D7F8B2
:107B6C0000E04FEA1C254FEA0C6C1095CDF83CC098
:107B7C000FAFC0CF19919219CDF868E0216843EB93
:107B8C00070319AE60CE521943EB0603884205D0A9
:107B9C0000264FF48077921943EB070362B640F24C
:107BAC00D81799E80300C2F20007801841EB0301D3
:107BBC00D7F804C04A0943096245D7F800E043EA04
:107BCC00C16302D88AD1734588D972B6DDF8448076
:107BDC000021C8F800102568129B139E28022890DB
:107BEC001868336827914FEA032827AB0CCB12EBAC
:107BFC00080643F10007321847F10003149F29913E
:107C0C003868060C00042390249623AFC0CF921939
:107C1C0043EB0703159F169E3868D6F80080060ABA
:107C2C0000062590269625AFC0CFCDF8A8809219D6
:107C3C0029A903C943EB0703121843EB010321687D
:107C4C008D4205D000254FF48076521943EB060384
:107C5C0062B699E80300801841EB030143090FA7B2
:107C6C00C0CF480943EAC1631EEB06014CEB070287
:107C7C00904204D87FF41FAE8B427FF61CAE40F2CC
:107C8C00EC1200200021C2F2000282E8030012E68E
:107C9C00BC040020C00400208804002000A3E111D3
:107CAC00000000002DE9F0410546DFF8184420687B
:107CBC0043683BB15A681F2A08D8102A06D0DB68E3
:107CCC00002BF7D1FEF7C6FF00231EE0103A5A60D6
:107CDC00C268103AC2605A6892B90668012E00F068
:107CEC0075819968002900F0A581DF68002F00F0EC
:107CFC00DD81CF60DA6891600268013A02605A68EF
:107D0C00196810208B18885004332A68DFF8B88360
:107D1C001A60C8F80030206843683BB15A68232ABF
:107D2C0008D8142A06D0DB68002BF7D1FEF792FF97
:107D3C0000271EE0143A5A60C268143AC2605A68AE
:107D4C0092B90568012D00F02D819968002900F089
:107D5C004E81DE68002E00F08581CE60DA6891607D
:107D6C000268013A02605A681B6814219F189950E6
:107D7C000437D64A00233A60D54A7F603B72FB60D9
:107D8C00DFF850C31360D44A44F66D611370DCF80D
:107D9C000030C4F2C61101FB03F303F54053393331
:107DAC00B3F1FF3F28BF01339AB201FB03F303F594
:107DBC0040533933B3F1FF3F28BF013398B201FB75
:107DCC0003F303F540533933B3F1FF3F28BF0133BD
:107DDC009DB2002A59D0CCF80030C04B1D71987060
:107DEC002D0A000A1A70120A5D71D8705A70206838
:107DFC0043683BB15A68232A08D8142A06D0DB689A
:107E0C00002BF7D1FEF726FF00261EE0143A5A602D
:107E1C00C268143AC2605A6892B90568012D00F024
:107E2C00C6809968002900F0D680DE68002E00F02C
:107E3C000D81CE60DA6891600268013A02605A687E
:107E4C001B6814219E189950043600233372F3607A
:107E5C00A34B00213360A34B0022766083E806001D
:107E6C00A14B83E80600A14B83E806002068436819
:107E7C003BB15A68232A16D8142A14D0DB68002B7D
:107E8C00F7D1FEF7E7FE00252EE000287CD0CCF8D9
:107E9C000030924B1D7198702D0A000A5D71D870DC
:107EAC001A705A70A3E7143A5A60C268143AC26046
:107EBC005A68A2B90568012D7ED09968002900F096
:107ECC00AD80D3F80CC0BCF1000F00F0E380C1F81A
:107EDC000CC0DA6891600268013A02605A681B684B
:107EEC0014219D189950043500232B72EB60804BA4
:107EFC006D602B60206843683BB15A68232A09D80F
:107F0C00142A07D0DB68002BF7D10024FEF7A2FE61
:107F1C00234620E0143A5A60C268143AC2605A6888
:107F2C009AB90468012C4CD0996800296BD0D3F80D
:107F3C000CC0BCF1000F00F0A180C1F80CC0DA68D5
:107F4C0091600268013A02605A68196814208B1813
:107F5C00043388501C4600221A72DA60654A5B6052
:107F6C001A603846FFF74EFA3046FFF723FB2846D7
:107F7C00FFF734FAD8F80030214618680422036859
:107F8C001B689847BDE8F081002D3FF404AFCCF896
:107F9C000030524B1D712D0A5D719870D87018709D
:107FAC00587024E74260826002605A68DCE64260E6
:107FBC00826002605A6843E74260826002605A68DD
:107FCC008DE74260826002605A68BEE74260826060
:107FDC0002605A6894E6002D3FF432AF4168C968DC
:107FEC0041608A600268013A02605A6828E7002DF5
:107FFC003FF4BAAE4168C96841608A600268013AD0
:10800C0002605A68B0E6002C9FD04168C968416094
:10801C008A600268013A02605A6896E7002D3FF4C4
:10802C005EAF4168C96841608A600268013A0260CB
:10803C005A6854E7002E3FF463AE4168C96841604A
:10804C008A600268013A02605A6859E6002D3FF4D2
:10805C00F7AE816889688160CA600268013A026083
:10806C005A68EDE6002D3FF47FAE81688968816027
:10807C00CA600268013A02605A6875E6002C3FF447
:10808C0064AF816889688160CA600268013A0260E5
:10809C005A685AE7002D3FF422AF816889688160E5
:1080AC00CA600268013A02605A6818E7002E3FF471
:1080BC0027AE816889688160CA600268013A0260F3
:1080CC005A681DE63C000020FC0100207C112100B8
:1080DC008404002048000020940200208804002022
:1080EC0070112100D0010020EC010020D8010020EB
:1080FC0064112100581121002DE9F04772B6454A50
:10810C001368116813F0080F21EA0301116003D002
:10811C00414A11680131116013F0020F70D0DFF881
:10812C00FC80D8F80030002B6AD048F610024FF0D3
:10813C00000CC4F20802384F48F61404C2F800C010
:10814C00C4F208043E68D4F800A048F61804C4F23F
:10815C000804D4F8009032024FEA09291CEB0904F8
:10816C0042F1000514EB0A0148F62404C4F2080499
:10817C00D4F800A045F100024FEA0A44091948F668
:10818C002004C4F208044FEA1A45D4F800A042EBCC
:10819C0005024FEA0A64091948F61C044FEA1A252D
:1081AC00C4F2080442EB0502D4F800A011EB0C0158
:1081BC00D7F800C042EB0A02664505D000244FF404
:1081CC008075091942EB0502DFF854C09CE83000B9
:1081DC00954215D812D00022C8F8002048F60802A3
:1081EC00C4F208020821116062B698474EF20013DF
:1081FC00CEF200034FF080621A6009E08C42EAD99B
:10820C004EF20013CEF200034FF080621A6062B699
:10821C00BDE8F087D0040020BC040020A804002096
:10822C00A004002040F2B44300210022C2F200035B
:10823C0083E8060040F2C843C2F2000383E806005C
:10824C0040F2AC43C2F2000383E8060048F6040394
:10825C00C4F208031A6848F60C0122F001021A60F5
:10826C0048F60802C4F208020020C4F208011060AB
:10827C000860196848F2051021F0020119601968AC
:10828C00C0F2200041F00801196040F27051C2F2B6
:10829C000001C1F8C4004EF20411CEF2000102201C
:1082AC000860116841F0080111601A6842F001027F
:1082BC001A6070472DE9F001D4B20C7246680023A5
:1082CC00CB6049600F1D002E22D0D0F8088098F8A2
:1082DC000430A34222D8D8F808308BB1454693F825
:1082EC0004C0A44507D9CDB10136AF604660CB6060
:1082FC00BDE8F00170479A6812B11D461346EEE7CF
:10830C00C36801369F600023CB604660C760EFE70F
:10831C000123CE6043608760C760E9E70136C1F88E
:10832C000C8046608760E3E710B44468012C17D0DA
:10833C00836801F1040C9C4517D04BB19A682AB1A3
:10834C00944503D013469268002AF9D1CA689A6002
:10835C00C268944508BFC360013C446010BC7047C0
:10836C0000238360C3604360F8E7002CF6D0CB6831
:10837C00013C83604460F1E7F0B58468064617461B
:10838C00CDB29CB1002001E0A46874B12379AB425A
:10839C00FAD12068314603682A46D3F800C03B4620
:1083AC00E047A4680120002CF0D1F0BD2046FCE78A
:1083BC008368C9B27BB1002001E09B6843B193F89C
:1083CC0004C08C45F9D122B918689B68002BF6D1F2
:1083DC007047013AF1E71846FAE700BF0F4A01204F
:1083EC00002110B492E818001B1844EB0104012B77
:1083FC0082E818000BD00A4A012092E818000021EC
:10840C001B1844EB010482E8180010BC7047002CC8
:10841C00F1D1044A146054609460ECE754000020DD
:10842C005C0000206400002048F234638022C4F217
:10843C0008031A6048F63803E922C4F208031A60EC
:10844C00A24B46F2E0112DE9300893E80018002207
:10845C001BEB010B4CEB020C83E8001845F20003FC
:10846C00C4F20D03A0221A60994C50221A602368A2
:10847C00C3F34A02511E23F47E6389B223F01E0318
:10848C0043EA41032360002A40F0A780914B00246B
:10849C001A684FF4C95313EB0B03C3F30721517440
:1084AC00C3F3074144EB0C049174190ED174C4F35B
:1084BC00072113741475230E517548F62C00C4F360
:1084CC00074148F630049175D375C4F20804C4F220
:1084DC0008002368C3F340031BB1216821F002019B
:1084EC002160016811F0300F0CBF0021012119B17E
:1084FC00056825F0300505600BB90029E9D048F670
:10850C003803EE21C4F208031960D2F8C80048F20F
:10851C007061C4F208010B68002BFCD148F62804EA
:10852C00C4F208042060023804D0D15C01338342C9
:10853C002160FAD372B648F60C03C4F208031A6829
:10854C0002F008021A60644B1A6802F008021A6002
:10855C00624B332218CBBBEB030B6CEB040C48F6D1
:10856C001003C4F208031A6048F61403C4F208039B
:10857C00C3F800B04FEA1B2248F6180342EA0C621B
:10858C00C4F208031A604FEA1B4248F6240342EA7D
:10859C000C42C4F208031A604FEA1B6248F620032F
:1085AC0042EA0C22C4F208031A6048F61C03C4F217
:1085BC0008034B4AC3F800C04A4B1A604A4B83E885
:1085CC00001848F60803C4F208031A6842F01202B5
:1085DC001A6062B6BDE83008704748F6300248F6BB
:1085EC002C03C4F20802C4F208031168C1F3400161
:1085FC0019B1106820F002001060186810F0300FEC
:10860C000CBF0020012018B11D6825F030051D603D
:10861C0009B90028E9D048F63803EE22C4F2080361
:10862C001A6048F27062C4F208021368002BFCD185
:10863C0048F62801C4F2080109220A60E25C013301
:10864C00072B0A60FAD172B648F60C03C4F2080381
:10865C001A6802F008021A601F4B1A6802F008022E
:10866C001A601E4B332218CBBBEB030B6CEB040CC8
:10867C0048F61003C4F208031A6048F61403C4F257
:10868C000803C3F800B04FEA1B2248F6180342EA6D
:10869C000C62C4F208031A604FEA1B4248F624032A
:1086AC0042EA0C42C4F208031A604FEA1B6248F615
:1086BC00200342EA0C22C4F208031A6048F61C0399
:1086CC00C4F20803C3F800C0084A75E78400002010
:1086DC007000002080000020D0040020C004002086
:1086EC00FD862000A8040020A00400203584200072
:1086FC002DE9F041DA4B186890F89830002B40F0D7
:10870C00BE8048F23463C4F2080380221A6048F633
:10871C003803C4F20803E9221A6045F20003C4F2DC
:10872C000D03A0221A6048F6300C502248F62C019A
:10873C001A60C4F2080CC4F20801DCF80030C3F370
:10874C0040032BB1DCF8002022F00202CCF8002010
:10875C000A6812F0300F0CBF002201221AB10C680B
:10876C0024F030040C600BB9002AE6D072B648F63F
:10877C0010030021C4F20803BA4E48F61402196023
:10878C00C4F20802D6F800C0156848F61802C4F204
:10879C00080212684FEA0C2412028F1844F10008E8
:1087AC0048F62404C4F208047A19276848F1000337
:1087BC003C043D0C121948F62004C4F20804276846
:1087CC0048F61C04C4F2080443EB0503D4F80080FB
:1087DC003C063D0A121943EB05035218316843EB72
:1087EC0008038C4505D000244FF48075121943EB17
:1087FC00050362B69C4C9D4D94E8C000B61847EB3F
:10880C00030785E8C0000378C3F3C103032B73D1BE
:10881C00837F052B70D172B6DFF854C2DCF80410DC
:10882C0039B30B68984218BF0B4600F017815B6890
:10883C00FBB11A689042FAD1DCF800608C4A012E28
:10884C0000F0ED80994200F0FC804A682AB1934216
:10885C0003D011465268002AF9D15A68DFF810E2A9
:10886C004A60DCF80820934200F0F380013ECCF81B
:10887C000060FEF7F3F962B695E8C0003CE072B612
:10888C00DFF8ECC145F20003C4F20D03A022DCF8C2
:10889C0004101A6050221A6039B30B68984218BF42
:1088AC000B4600F0BA805B68FBB11A689042FAD1B3
:1088BC00DCF800406E4A012C00F0AA80994200F0CE
:1088CC00B3804A682AB1934203D011465268002AF9
:1088DC00F9D15A68DFF898E14A60DCF80820934235
:1088EC0000F0AA80013CCCF80040FEF7B7F962B664
:1088FC005E4B5D4C93E8C00048F63803C4F20803A5
:10890C00E2221A60EF221A6048F28C63C4F2080368
:10891C001A6822F004021A6048F23463C4F20803A5
:10892C001A6822F004021A6042F2A803C4F20D0382
:10893C001A6842F001021A6042F2AC03C4F20D0351
:10894C001A6842F001021A6042F2B003C4F20D033D
:10895C001A6842F001021A6045F20003C4F20D03DA
:10896C00A0221A6050221A6072B648F60C03C4F2A8
:10897C0008031A6802F008021A603E4B1A6802F0EB
:10898C0008021A6040F2C04394E80600C0F24703A4
:10899C0000245B1A64EB02049B1948F6100244EBAA
:1089AC000704C4F208023321116048F61402C4F221
:1089BC0008021360190A48F6180241EA0461C4F26D
:1089CC0008021160190C48F6240241EA0441C4F271
:1089DC0008021160190E48F6200241EA0421C4F283
:1089EC000802116048F61C02C4F208021460224905
:1089FC00224A1160224A82E8180048F60803C4F2A1
:108A0C0008031A6842F012021A6062B6BDE8F081DF
:108A1C00002353609360136067E70B4648E700231D
:108A2C0053609360136024E7002C3FF45EAF4B68F7
:108A3C00013C5360146058E7CEF80810DEF8004093
:108A4C0050E7002E3FF415AF4B68013E53601660A3
:108A5C000FE7CEF80810DEF8006007E70B46EBE6F0
:108A6C0080000020BC040020C004002084000020F2
:108A7C0064000020D0040020918A2000A80400206B
:108A8C00A004002045F20003C4F20D03A0221A60DA
:108A9C0050221A606D4B01222DE9F0081A7072B643
:108AAC0048F610020023C4F20802694D48F614007F
:108ABC001360C4F208002C68D0F800C048F6180007
:108ACC00C4F208000068220200021E1848F62400B6
:108ADC00C4F20800006842F100074FEA004B16EBA5
:108AEC000C014FEA104C48F62000C4F2080006684E
:108AFC0047F1000248F61C0011EB0B014FEA066B24
:108B0C0042EB0C02C4F2080011EB0B014FEA162CDD
:108B1C00006842EB0C02C9182B6842EB00029C4225
:108B2C0005D000234FF48074C91842EB040262B6DE
:108B3C00DFF820C19CE8180072B648F60C00C4F2AD
:108B4C00080005684BF2206B05F0080505604248EB
:108B5C0013EB0B03056805F0080505609CE8600045
:108B6C004FF0000C44EB0C045B1B64EB06045B182D
:108B7C0044EB020448F610023321C4F208021160DF
:108B8C0048F61402C4F208021360190A48F61802D7
:108B9C0041EA0461C4F208021160190C48F624027F
:108BAC0041EA0441C4F208021160190E48F6200291
:108BBC0041EA0421C4F20802116048F61C02C4F216
:108BCC00080214602549264A1160264A82E81800DA
:108BDC0048F60803C4F208031A6842F012021A603D
:108BEC0062B642F2A803C4F20D031A6842F0010205
:108BFC001A6042F2AC03C4F20D031A6842F001028F
:108C0C001A6042F2B003C4F20D031A6842F001027A
:108C1C001A6048F22463C4F208031A6822F00C02AA
:108C2C001A6048F28C63C4F208031A6822F004023A
:108C3C001A601A6842F004021A6048F63803C4F24B
:108C4C000803E3221A60BDE8F00870477D0000209D
:108C5C00BC040020C0040020D0040020558E20004D
:108C6C00A8040020A0040020F0B58AB000293CD054
:108C7C00012908BF046835D011F0010F3BD101392F
:108C8C004B08056833D0012B05FB05F428D013F0F5
:108C9C00010F52D1013B5A087DD0012A04FB04F686
:108CAC001CD012F0010F7AD1013A520800F0A580C5
:108CBC00012A06FB06F70FD012F0010F40F0AB8033
:108CCC0007FB07F30AA8013A40F8283D510868460B
:108CDC00FFF7CAFF00FB07F707FB06F606FB04F4D9
:108CEC0005FB04F420460AB0F0BD0124FAE7012488
:108CFC0005FB04F4F6E74B080468F6D0012B04FBE3
:108D0C0004F4EFD013F0010F31D1013B5A082AD0F3
:108D1C00012A04FB04F5E3D012F0010F55D105FB39
:108D2C0005F30AA8013A40F8103D5108FFF79CFFE3
:108D3C0000FB05F505FB04F4D4E78B08012B04FBC1
:108D4C0004F4CDD013F0010F4BD104FB04F20AA8AC
:108D5C00013B40F8182D5908FFF786FF00FB04F47F
:108D6C0005FB04F4BEE7012505FB04F4BAE78B0808
:108D7C00012B04FB04F4B5D013F0010F41D104FB1B
:108D8C0004F20AA8013B40F8082D5908FFF76CFFC4
:108D9C0000FB04F4A6E7012606FB04F4A0E79B08FD
:108DAC00012B06FB06F699D013F0010F3FD106FB01
:108DBC0006F20AA8013B40F8202D5908FFF754FF92
:108DCC0000FB06F606FB04F48AE705FB05F50AA88A
:108DDC0040F80C5D9908FFF747FF054605FB04F4C6
:108DEC0080E704FB04F40AA840F8144DC908FFF707
:108DFC003BFF044605FB04F474E7012707FB06F66A
:108E0C006CE704FB04F40AA840F8044DC908FFF70A
:108E1C002BFF044666E707FB07F70AA840F8247DFA
:108E2C005108FFF721FF074607FB06F656E706FB3E
:108E3C0006F60AA840F81C6D5908FFF715FF064600
:108E4C0006FB04F44CE700BF40F2A8410023C2F239
:108E5C00000148F608020B60C4F2080208211160F8
:108E6C0045F20002C4F20D02A021116050211160E4
:108E7C0048F63802C4F20802E2211160EF211160B9
:108E8C0048F28C62C4F2080211682DE9F04F21F00F
:108E9C000401116048F23462C4F208021168DFF870
:108EAC00B44521F00401116042F2A802C4F20D0293
:108EBC00116885B041F00101116042F2AC02C4F2BC
:108ECC000D021168236041F00101116042F2B00201
:108EDC00C4F20D02116841F001011160DFF8782530
:108EEC001370DFF87825137072B648F61002C4F2CE
:108EFC000802DFF86CC548F614051360C4F20805C7
:108F0C00DCF800002E6848F61805C4F208052D6838
:108F1C0002022D025F1948F62405C4F2080542F13D
:108F2C000008B9192F6848F100023D043E0C49199C
:108F3C0048F62005C4F20805D5F8008048F61C0553
:108F4C00C4F208052F684FEA086542EB060249197E
:108F5C004FEA182642EB0602C918DCF8003042EB47
:108F6C000702984205D000254FF48076491942EB50
:108F7C00060262B6DFF8ECB49BE860006D1846EBB5
:108F8C0002060195029602994FEA551A4AEAC66AF8
:108F9C004E0972B6DFF8D0747B68002B42D0B8460D
:108FAC004FF0000918685D68827890F803C0C179A9
:108FBC0042EA0C2C02794CEA024C42794CEA026CE3
:108FCC00827942EA0122017A42EA0142417A42EA7A
:108FDC000162B24200F2DA8000F0D580D0F89C2019
:108FEC000092D0F8A020B24240F2F1802368A3B1E5
:108FFC0093F898C0BCF1000F10D190F898C0BCF158
:10900C00000F0AD1D3F8B4C0D0F8B410614504D322
:10901C00D3F8A0C0944540F20C8120602B46002D63
:10902C00C0D1236862B6002B00F0BC8193F8980085
:10903C00D3F88C20D3F8A410002800F0F7804FF060
:10904C00000C1205120D4CEA0232DFF8200442F437
:10905C00BB7242EA016202600022027242F2A80272
:10906C00C4F20D02090A4160116841F0010111605E
:10907C0042F2AC02C4F20D02116841F00101116020
:10908C0042F2B002C4F20D02116841F0010111600C
:10909C0048F22462C4F20802116841F00C0111601C
:1090AC0048F63802EE21C4F20802116048F27061F1
:1090BC00C4F208010A68002AFCD148F6280CC4F254
:1090CC00080C0921CCF80010815C0132072ACCF87D
:1090DC000010F9D145F20002C4F20D02A02111607A
:1090EC0050211160D3F8B41003F1900660CE4A1CE5
:1090FC00C3F8B420002A00F00B81012A00F03C8157
:10910C0012F0010F40F01781042305A840F8083D28
:10911C004908FFF7A9FDD64944F66D62D1F800C0A5
:10912C00C4F2C61202FB0CF202F540523932B2F113
:10913C00FF3F28BF01324000B2FBF0FC00FB1C20BB
:10914C0044F6A05CA0FB0C78236893F898000028E8
:10915C0078D00A6029463246C91B62EB08024AB92C
:10916C0044F69F50814205D94BF22070C0F2460064
:10917C00814278D9D3F8B42044F6A051013AC3F80F
:10918C00B42000226FE0D4457FF628AFD7F800C09A
:10919C00BCF1010F35D0D8F8042093423AD042B13B
:1091AC00516829B18B4203D00A4649680029F9D18C
:1091BC005560B9688B4204BFD8F800C0C8F80820C5
:1091CC000CF1FF3CC7F800C0FDF748FD26E703D1C2
:1091DC00009951453FF60AAFD7F800C0BCF1010F1A
:1091EC000FD0D8F80420934214D0002AE1D0516853
:1091FC000029DDD08B42DBD00A4649680029F9D121
:10920C00D6E7C8F80490C8F80890C8F80090FDF7A5
:10921C0025FD03E7BCF1000FD6D00CF1FF3CC8F8DC
:10922C000450C8F800C0FDF719FDF7E693F899C093
:10923C0007E77FF4F3AED3F89C30009A93427FF6A5
:10924C00EDAEEAE60A60791948EB060222B94EF651
:10925C00DF00814200F2F580D3F8B420013AC3F864
:10926C00B42084A206CA72B648F60C03C4F20803F2
:10927C00186800F008001860804B186800F00800AF
:10928C0018609BE8600001AC18CC5B1B64EB060417
:10929C005B1844EB020448F61002C4F208023321B6
:1092AC00116048F61402C4F208021360190A48F659
:1092BC00180241EA0461C4F208021160190C48F664
:1092CC00240241EA0441C4F208021160190E48F666
:1092DC002002C4F2080241EA0421116048F61C0283
:1092EC00C4F208021460664A40F2A845C2F20005B6
:1092FC002A60644A82E8180048F60803C4F208039E
:10930C001A6842F012021A6062B605B0BDE8F08F1E
:10931C00574944F66D620868C4F2C61202FB00F2AB
:10932C0002F540523932B2F1FF3F28BF013200271B
:10933C004FF0000809E7042305A8510840F8043D44
:10934C00FFF792FC4A4944F66D62D1F800C0C4F2B2
:10935C00C61202FB0CF202F540523932B2F1FF3F59
:10936C0028BF0132B2FBF0FC00FB1C2044F6A05CD1
:10937C002368A0FB0C78E8E63D4944F66D6208686A
:10938C00C4F2C61202FB00F202F540523932B2F1BD
:10939C00FF3F28BF013202F0010744F6A050A7FBA3
:1093AC000078D2E645F20003C4F20D03A0221A6045
:1093BC0050221A6072B648F60C03C4F208031A68FD
:1093CC00002402F008021A602C4B1A6802F0080202
:1093DC001A6040F2C043C0F247039BE806005B1AD8
:1093EC0064EB020401AA06CA5B1844EB020448F6BB
:1093FC001002C4F208023321116048F61402C4F2C0
:10940C0008021360190A48F6180241EA0461C4F212
:10941C0008021160190C48F6240241EA0441C4F216
:10942C0008021160190E48F62002C4F2080241EA43
:10943C000421116048F61C02C4F208021460124A9E
:10944C0052E74BF22070C0F2460081427FF60BAF20
:10945C0002E700BF800000207C0000207D0000207F
:10946C00BC040020C0040020640000207000002018
:10947C004800002020B7460000000000D004002067
:10948C0051992000A0040020918A200048F638034E
:10949C00C4F20803E2221A60EF221A6048F28C62CE
:1094AC002DE9F041C4F208020026166048F29062E1
:1094BC00C4F20802166048F29462C4F20802166004
:1094CC0048F25862044646608660C660C4F20802E0
:1094DC00F820106048F2E872C4F20802092010600B
:1094EC0048F2C862C4F208021520106048F6040263
:1094FC00C4F208020B20106048F2B862C4F20802F1
:10950C0001201060EE221A60ED221A6048F25463BA
:10951C00C4F208031A68C14F22F001021A6048F223
:10952C008C53C4F208031E6048F25063FF22C4F24D
:10953C0008031A6048F24063C4F208031A6048F248
:10954C009473C4F208031A6048F63403C4F2080397
:10955C001E6048F63003C4F208031E6048F62C0364
:10956C00C4F208031E60AE4B216123606161266268
:10957C006662A662E662266381B066633546A663C0
:10958C00E6632664C4F89460C4F898604FF0E00871
:10959C00386843683BB15A68EF2A08D8E02A06D0ED
:1095AC00DB68002BF7D1FDF755FB002323E0E03AF5
:1095BC005A60C268E03AC2605A68BAB9D0F800C0C2
:1095CC00BCF1010F00F00B819968002900F00C81AF
:1095DC00D3F80CE0BEF1000F00F01381C1F80CE0E1
:1095EC00DA6891600268013A02605A6819688B184F
:1095FC0041F802800433A2190436502E83F8BC5073
:10960C00C3F8C050C3F8C850C3F8CC30C3F8D0501E
:10961C00C3F8D430C3F8D8505364B9D140F22C03FA
:10962C00C0F228031A7840F22D03C0F228031978EF
:10963C0040F22E0351402176C0F228031A7840F2F2
:10964C002F03C0F228031B784FF0010C83EA0202AF
:10965C0048F2D053C4F208036276196048F2D4532E
:10966C00C4F208031A6048F20463C4F208031A68CF
:10967C004BF2204122F020021A6048F22463C4F21B
:10968C0008031A68C4F20D0142F040021A6048F255
:10969C000063C4F208031A684BF21C4022F001026A
:1096AC001A6048F20863C4F208031A68C4F20D0089
:1096BC0022F001021A6048F22863C4F208031A6807
:1096CC0022F001021A601A23E36148F23C6356222D
:1096DC00C4F208031A600B684BF2004223F0080333
:1096EC000B60C4F20D02136843F00803136044F2DC
:1096FC00CC03C4F20D03C3F800C0082303604BF283
:10970C001873C4F20D03D3F800E02EF4002EC3F846
:10971C0000E0D1F800E02EF0200EC1F800E0116856
:10972C0041F02001116044F2D402C4F20D02C2F8DF
:10973C0000C0202202601A68204622F400121A602F
:10974C0048F2AC731022C4F208031A6048F2B073EA
:10975C001122C4F208031A6040F220038022C4F2E2
:10976C0001431A6040F228038122C4F201431A60BB
:10977C002C4B5D65DD6406F05FF848F63403C4F2EB
:10978C0008031D6048F63003C4F208031D6048F658
:10979C002C03C4F208031D6048F28C630422C4F24B
:1097AC0008031A6048F29063C4F208031D6048F283
:1097BC0094630C22C4F208031A6045F20003C4F24D
:1097CC000D031D601A6801A842F0080240F8045D00
:1097DC001A606846FFF738FB01B0BDE8F0814260C3
:1097EC00826002605A6801E7BCF1000F3FF4FEAEE4
:1097FC004168C96841608A600268013A02605A682F
:10980C00F4E6BCF1000F3FF4F1AE81688968816029
:10981C00CA600268013A02605A68E7E63C00002020
:10982C00C0112100E004002042F2A803C4F20D0391
:10983C001A6870B542F001021A6042F2AC03C4F22D
:10984C000D031A68044642F001021A6042F2B0039A
:10985C00C4F20D031A6842F001021A60FEF7E2FC32
:10986C00344B186841680B4600295FD04A68AF2A10
:10987C0007D8A02A05D0DB68002B57D05A68AF2A2E
:10988C00F7D9A03A5A60C268A03AC2605A6872B955
:10989C000568012D32D09E68002E34D0D96800297D
:1098AC003AD0F160DA68013D056096605A681B6831
:1098BC00A0219D189950043521462846FFF7E6FD56
:1098CC001D4B04EB440403EB840243F824502A217F
:1098DC00013443F824102B239360184B184A43F897
:1098EC002120C3F8AC204EF20013CEF200034FF04F
:1098FC0080621A604FF000621A6070BD02604260B4
:10990C0082605A68D3E7002DD1D0C968013D05604B
:10991C0041608A605A68CAE7002DC8D08168013D51
:10992C00896805608160CA605A68C0E7FDF792F9E2
:10993C000025C1E73C000020D40400207005002065
:10994C003D0221002DE9F00F45F20003C4F20D0396
:10995C00A02018605020186048F63803C4F20803A1
:10996C00E32018608FB072B648F610000023C4F2E2
:10997C0008000360DFF8F4A648F61400C4F20800EF
:10998C00DAF80040D0F8009048F61800C4F208004D
:10999C0000684FEA042C0002191848F62400C4F29F
:1099AC00080000684CF1000211EB090B42F1000CAD
:1099BC00CDF808B0CDF80CC04FEA004B4FEA104C74
:1099CC0002A903C910EB0B0041EB0C0102900391AF
:1099DC0002AA06CA48F62000C4F20800006848F63D
:1099EC001C0CC4F2080C4FEA006BDCF8009011EB75
:1099FC000B014FEA102C42EB0C02C918DAF80030BC
:109A0C0042EB09029C420291039208D008460023C3
:109A1C00C0184FF4807442EB04010290039162B6BB
:109A2C0040F2C04244F6A053C2F20002002406CA1F
:109A3C00C91842EB040248F2646002AC18CCC91895
:109A4C0042EB0402C4F20800069107929DE806005E
:109A5C00036813F0010FFBD048F24C63C4F2080307
:109A6C00186848F61409C0F300100E9048F610045C
:109A7C004846C4F20804C4F2080048F61C098DE8F4
:109A8C0006000894099048F6180148F6240248F696
:109A9C00200448468DE86000C4F20801C4F20802B4
:109AAC00C4F20804C4F208000A910B920C940D90B5
:109ABC0072B608990022099B0A9C0A60DAF8000029
:109ACC00D3F800C0236800211B020202CD1842F11A
